{
  "_format": "hh-sol-artifact-1",
  "contractName": "GushlyFactory",
  "sourceName": "contracts/GushlyFactory.sol",
  "abi": [
    {
      "inputs": [],
      "stateMutability": "nonpayable",
      "type": "constructor"
    },
    {
      "inputs": [],
      "name": "admin",
      "outputs": [
        {
          "internalType": "address",
          "name": "",
          "type": "address"
        }
      ],
      "stateMutability": "view",
      "type": "function"
    },
    {
      "inputs": [
        {
          "internalType": "address",
          "name": "_employee",
          "type": "address"
        },
        {
          "internalType": "uint256",
          "name": "_expiry",
          "type": "uint256"
        },
        {
          "internalType": "bool",
          "name": "_payByHour",
          "type": "bool"
        },
        {
          "internalType": "uint256",
          "name": "_hourlyRate",
          "type": "uint256"
        },
        {
          "internalType": "uint256",
          "name": "_projectRate",
          "type": "uint256"
        }
      ],
      "name": "createContract",
      "outputs": [],
      "stateMutability": "nonpayable",
      "type": "function"
    },
    {
      "inputs": [],
      "name": "getEmployeeContracts",
      "outputs": [
        {
          "internalType": "contract GushlyImplementation[]",
          "name": "",
          "type": "address[]"
        }
      ],
      "stateMutability": "view",
      "type": "function"
    },
    {
      "inputs": [],
      "name": "getEmployerContracts",
      "outputs": [
        {
          "internalType": "contract GushlyImplementation[]",
          "name": "",
          "type": "address[]"
        }
      ],
      "stateMutability": "view",
      "type": "function"
    }
  ],
  "bytecode": "0x608060405234801561001057600080fd5b50600080546001600160a01b0319163317905561169c806100326000396000f3fe608060405234801561001057600080fd5b506004361061004c5760003560e01c80634a9d6ae41461005157806390d1d8321461006f578063e7bae96714610077578063f851a4401461008c575b600080fd5b6100596100b7565b60405161006691906102d8565b60405180910390f35b610059610122565b61008a610085366004610278565b61018b565b005b60005461009f906001600160a01b031681565b6040516001600160a01b039091168152602001610066565b3360009081526001602090815260409182902080548351818402810184019094528084526060939283018282801561011857602002820191906000526020600020905b81546001600160a01b031681526001909101906020018083116100fa575b5050505050905090565b33600090815260026020908152604091829020805483518184028101840190945280845260609392830182828015610118576020028201919060005260206000209081546001600160a01b031681526001909101906020018083116100fa575050505050905090565b6001600160a01b0385163314156101a157600080fd5b60003386868686866040516101b59061026b565b6001600160a01b039687168152959094166020860152604085019290925215156060840152608083015260a082015260c001604051809103906000f080158015610203573d6000803e3d6000fd5b50336000908152600160208181526040808420805480850182559085528285200180546001600160a01b039687166001600160a01b031991821681179092559b9095168452600282528320805492830181558352909120018054909716179095555050505050565b6113418061032683390190565b600080600080600060a0868803121561028f578081fd5b85356001600160a01b03811681146102a5578182fd5b945060208601359350604086013580151581146102c0578182fd5b94979396509394606081013594506080013592915050565b6020808252825182820181905260009190848201906040850190845b818110156103195783516001600160a01b0316835292840192918401916001016102f4565b5090969550505050505056fe60806040523480156200001157600080fd5b5060405162001341380380620013418339810160408190526200003491620000cf565b600080546001600160a01b038089166001600160a01b03199283161783556001805491891691909216179055600281905560038190556004556200007984426200013b565b6005556006805493151560ff1994851617905560079190915560085560006009819055600a55600b805490911690555062000160915050565b80516001600160a01b0381168114620000ca57600080fd5b919050565b60008060008060008060c08789031215620000e8578182fd5b620000f387620000b2565b95506200010360208801620000b2565b945060408701519350606087015180151581146200011f578283fd5b809350506080870151915060a087015190509295509295509295565b600082198211156200015b57634e487b7160e01b81526011600452602481fd5b500190565b6111d180620001706000396000f3fe60806040526004361061012e5760003560e01c806367d8b654116100ab578063b8b4f1a01161006f578063b8b4f1a014610368578063c032846b1461037d578063c56e610e1461039f578063d1e2116c146103b4578063d2faac15146103c9578063f61c266b146103de57600080fd5b806367d8b654146102f45780638245163b14610309578063841c36141461031e578063a2b299c114610333578063b531f3c61461034857600080fd5b80634fae0f16116100f25780634fae0f161461027557806350d264ca1461028a57806353544afe146102aa578063626d0dd8146102bf5780636793141f146102df57600080fd5b8063126725e0146101b95780632e1a7d4d146101e357806332c49b4b146102055780634132db8f1461022857806346e301351461025557600080fd5b366101b45761013b6103f3565b600b805460ff1916600183600481111561016557634e487b7160e01b600052602160045260246000fd5b02179055506001600b5460ff16600481111561019157634e487b7160e01b600052602160045260246000fd5b1461019b57600080fd5b34600260008282546101ad91906110f9565b9091555050005b600080fd5b3480156101c557600080fd5b506101ce610489565b60405190151581526020015b60405180910390f35b3480156101ef57600080fd5b506102036101fe366004611003565b6104d3565b005b34801561021157600080fd5b5061021a610597565b6040519081526020016101da565b34801561023457600080fd5b5061023d6105de565b6040516001600160a01b0390911681526020016101da565b34801561026157600080fd5b50610203610270366004611003565b61062e565b34801561028157600080fd5b5061021a6108e0565b34801561029657600080fd5b506102036102a5366004611003565b610927565b3480156102b657600080fd5b506102036109cc565b3480156102cb57600080fd5b506102036102da366004611003565b610a75565b3480156102eb57600080fd5b5061021a610b19565b34801561030057600080fd5b5061021a610b60565b34801561031557600080fd5b5061021a610ba7565b34801561032a57600080fd5b5061021a610bdb565b34801561033f57600080fd5b5061023d610c22565b34801561035457600080fd5b50610203610363366004611003565b610c72565b34801561037457600080fd5b50610203610d31565b34801561038957600080fd5b506103926103f3565b6040516101da919061101b565b3480156103ab57600080fd5b5061021a610dd6565b3480156103c057600080fd5b50610203610e1d565b3480156103d557600080fd5b50610203610ec3565b3480156103ea57600080fd5b5061021a610fbc565b600080546001600160a01b031633148061041757506001546001600160a01b031633145b61043c5760405162461bcd60e51b8152600401610433906110b1565b60405180910390fd5b6004600b5460ff16600481111561046357634e487b7160e01b600052602160045260246000fd5b141561046f5750600490565b60055442111561047f5750600290565b50600b5460ff1690565b600080546001600160a01b03163314806104ad57506001546001600160a01b031633145b6104c95760405162461bcd60e51b8152600401610433906110b1565b5060065460ff1690565b6001546001600160a01b031633146104fd5760405162461bcd60e51b815260040161043390611043565b60035481111561054f5760405162461bcd60e51b815260206004820152601d60248201527f496e73756666696369656e7420656d706c6f7965652062616c616e63650000006044820152606401610433565b80600360008282546105619190611144565b9091555050604051339082156108fc029083906000818181858888f19350505050158015610593573d6000803e3d6000fd5b5050565b600080546001600160a01b03163314806105bb57506001546001600160a01b031633145b6105d75760405162461bcd60e51b8152600401610433906110b1565b5060095490565b600080546001600160a01b031633148061060257506001546001600160a01b031633145b61061e5760405162461bcd60e51b8152600401610433906110b1565b506001546001600160a01b031690565b6000546001600160a01b031633146106585760405162461bcd60e51b81526004016104339061107a565b6106606103f3565b600b805460ff1916600183600481111561068a57634e487b7160e01b600052602160045260246000fd5b02179055506001600b5460ff1660048111156106b657634e487b7160e01b600052602160045260246000fd5b146106c057600080fd5b6002548111156107125760405162461bcd60e51b815260206004820152601b60248201527f496e73756666696369656e7420657363726f772062616c616e636500000000006044820152606401610433565b600a548111156107735760405162461bcd60e51b815260206004820152602660248201527f596f752061726520617070726f76696e67206d6f7265207468616e20636c61696044820152656d56616c756560d01b6064820152608401610433565b60065460ff161561087a5760095461078b908261115b565b156107f25760405162461bcd60e51b815260206004820152603160248201527f416d6f756e7420617070726f766564206d7573742062652061206d756c7469706044820152706c65206f6620686f75726c79207261746560781b6064820152608401610433565b6007546107ff9082611111565b600960008282546108109190611144565b90915550506007546009546108259190611125565b600a81905550806002600082825461083d9190611144565b92505081905550806003600082825461085691906110f9565b92505081905550806004600082825461086f91906110f9565b909155506108dd9050565b80600a600082825461088c9190611144565b9250508190555080600260008282546108a59190611144565b9250508190555080600360008282546108be91906110f9565b9250508190555080600460008282546108d791906110f9565b90915550505b50565b600080546001600160a01b031633148061090457506001546001600160a01b031633145b6109205760405162461bcd60e51b8152600401610433906110b1565b5060075490565b6000546001600160a01b031633146109515760405162461bcd60e51b81526004016104339061107a565b6109596103f3565b600b805460ff1916600183600481111561098357634e487b7160e01b600052602160045260246000fd5b02179055506004600b5460ff1660048111156109af57634e487b7160e01b600052602160045260246000fd5b14156109ba57600080fd5b80600560008282546108d791906110f9565b6000546001600160a01b031633146109f65760405162461bcd60e51b81526004016104339061107a565b6109fe6103f3565b600b805460ff19166001836004811115610a2857634e487b7160e01b600052602160045260246000fd5b02179055506001600b5460ff166004811115610a5457634e487b7160e01b600052602160045260246000fd5b14610a5e57600080fd5b600b80546003919060ff19166001835b0217905550565b6001546001600160a01b03163314610a9f5760405162461bcd60e51b815260040161043390611043565b610aa76103f3565b600b805460ff19166001836004811115610ad157634e487b7160e01b600052602160045260246000fd5b02179055506001600b5460ff166004811115610afd57634e487b7160e01b600052602160045260246000fd5b14610b0757600080fd5b80600a60008282546108d791906110f9565b600080546001600160a01b0316331480610b3d57506001546001600160a01b031633145b610b595760405162461bcd60e51b8152600401610433906110b1565b5060045490565b600080546001600160a01b0316331480610b8457506001546001600160a01b031633145b610ba05760405162461bcd60e51b8152600401610433906110b1565b5060085490565b6001546000906001600160a01b03163314610bd45760405162461bcd60e51b815260040161043390611043565b5060035490565b600080546001600160a01b0316331480610bff57506001546001600160a01b031633145b610c1b5760405162461bcd60e51b8152600401610433906110b1565b50600a5490565b600080546001600160a01b0316331480610c4657506001546001600160a01b031633145b610c625760405162461bcd60e51b8152600401610433906110b1565b506000546001600160a01b031690565b6001546001600160a01b03163314610c9c5760405162461bcd60e51b815260040161043390611043565b610ca46103f3565b600b805460ff19166001836004811115610cce57634e487b7160e01b600052602160045260246000fd5b02179055506001600b5460ff166004811115610cfa57634e487b7160e01b600052602160045260246000fd5b14610d0457600080fd5b8060096000828254610d1691906110f9565b9091555050600754600954610d2b9190611125565b600a5550565b6001546001600160a01b03163314610d5b5760405162461bcd60e51b815260040161043390611043565b610d636103f3565b600b805460ff19166001836004811115610d8d57634e487b7160e01b600052602160045260246000fd5b02179055506000600b5460ff166004811115610db957634e487b7160e01b600052602160045260246000fd5b14610dc357600080fd5b600b80546001919060ff19168280610a6e565b600080546001600160a01b0316331480610dfa57506001546001600160a01b031633145b610e165760405162461bcd60e51b8152600401610433906110b1565b5060025490565b6001546001600160a01b03163314610e475760405162461bcd60e51b815260040161043390611043565b610e4f6103f3565b600b805460ff19166001836004811115610e7957634e487b7160e01b600052602160045260246000fd5b02179055506003600b5460ff166004811115610ea557634e487b7160e01b600052602160045260246000fd5b14610eaf57600080fd5b600b80546004919060ff1916600183610a6e565b6000546001600160a01b03163314610eed5760405162461bcd60e51b81526004016104339061107a565b610ef56103f3565b600b805460ff19166001836004811115610f1f57634e487b7160e01b600052602160045260246000fd5b02179055506004600b5460ff166004811115610f4b57634e487b7160e01b600052602160045260246000fd5b1480610f7b57506002600b5460ff166004811115610f7957634e487b7160e01b600052602160045260246000fd5b145b610f8457600080fd5b600280546000918290556040519091339183156108fc0291849190818181858888f19350505050158015610593573d6000803e3d6000fd5b600080546001600160a01b0316331480610fe057506001546001600160a01b031633145b610ffc5760405162461bcd60e51b8152600401610433906110b1565b5060055490565b600060208284031215611014578081fd5b5035919050565b602081016005831061103d57634e487b7160e01b600052602160045260246000fd5b91905290565b60208082526018908201527f596f7520617265206e6f742074686520656d706c6f7965650000000000000000604082015260600190565b60208082526018908201527f596f7520617265206e6f742074686520656d706c6f7965720000000000000000604082015260600190565b60208082526028908201527f596f7520617265206e6f742074686520656d706c6f796572206f722074686520604082015267656d706c6f79656560c01b606082015260800190565b6000821982111561110c5761110c61116f565b500190565b60008261112057611120611185565b500490565b600081600019048311821515161561113f5761113f61116f565b500290565b6000828210156111565761115661116f565b500390565b60008261116a5761116a611185565b500690565b634e487b7160e01b600052601160045260246000fd5b634e487b7160e01b600052601260045260246000fdfea264697066735822122040cf11521dd0c55903776a20b3c5ea782e721c807b8b2137c31c36bfedf48e4a64736f6c63430008040033a26469706673582212205d5343a0f801fd1b33946cb8c32bd8426571a08fc9177bb368554cd84cd5933164736f6c63430008040033",
  "linkReferences": {},
  "deployedLinkReferences": {}
}