{
  "_format": "hh-sol-artifact-1",
  "contractName": "Faucet",
  "sourceName": "contracts/Faucet.sol",
  "abi": [
    {
      "inputs": [
        {
          "internalType": "address",
          "name": "_token",
          "type": "address"
        },
        {
          "internalType": "uint256",
          "name": "_amount",
          "type": "uint256"
        },
        {
          "internalType": "uint256",
          "name": "_frequency",
          "type": "uint256"
        }
      ],
      "stateMutability": "nonpayable",
      "type": "constructor"
    },
    {
      "anonymous": false,
      "inputs": [
        {
          "indexed": true,
          "internalType": "address",
          "name": "previousOwner",
          "type": "address"
        },
        {
          "indexed": true,
          "internalType": "address",
          "name": "newOwner",
          "type": "address"
        }
      ],
      "name": "OwnershipTransferred",
      "type": "event"
    },
    {
      "anonymous": false,
      "inputs": [
        {
          "indexed": false,
          "internalType": "uint256",
          "name": "_amount",
          "type": "uint256"
        }
      ],
      "name": "funded",
      "type": "event"
    },
    {
      "inputs": [],
      "name": "amount",
      "outputs": [
        {
          "internalType": "uint256",
          "name": "",
          "type": "uint256"
        }
      ],
      "stateMutability": "view",
      "type": "function"
    },
    {
      "inputs": [],
      "name": "balance",
      "outputs": [
        {
          "internalType": "uint256",
          "name": "",
          "type": "uint256"
        }
      ],
      "stateMutability": "view",
      "type": "function"
    },
    {
      "inputs": [],
      "name": "frequency",
      "outputs": [
        {
          "internalType": "uint256",
          "name": "",
          "type": "uint256"
        }
      ],
      "stateMutability": "view",
      "type": "function"
    },
    {
      "inputs": [
        {
          "internalType": "address",
          "name": "_to",
          "type": "address"
        }
      ],
      "name": "fund",
      "outputs": [],
      "stateMutability": "nonpayable",
      "type": "function"
    },
    {
      "inputs": [],
      "name": "owner",
      "outputs": [
        {
          "internalType": "address",
          "name": "",
          "type": "address"
        }
      ],
      "stateMutability": "view",
      "type": "function"
    },
    {
      "inputs": [],
      "name": "renounceOwnership",
      "outputs": [],
      "stateMutability": "nonpayable",
      "type": "function"
    },
    {
      "inputs": [
        {
          "internalType": "uint256",
          "name": "_amount",
          "type": "uint256"
        }
      ],
      "name": "setAmount",
      "outputs": [],
      "stateMutability": "nonpayable",
      "type": "function"
    },
    {
      "inputs": [
        {
          "internalType": "uint256",
          "name": "_frequency",
          "type": "uint256"
        }
      ],
      "name": "setFrequency",
      "outputs": [],
      "stateMutability": "nonpayable",
      "type": "function"
    },
    {
      "inputs": [],
      "name": "token",
      "outputs": [
        {
          "internalType": "contract IERC20",
          "name": "",
          "type": "address"
        }
      ],
      "stateMutability": "view",
      "type": "function"
    },
    {
      "inputs": [
        {
          "internalType": "address",
          "name": "newOwner",
          "type": "address"
        }
      ],
      "name": "transferOwnership",
      "outputs": [],
      "stateMutability": "nonpayable",
      "type": "function"
    }
  ],
  "bytecode": "0x608060405234801561001057600080fd5b506040516107cd3803806107cd83398101604081905261002f91610134565b610038336100e4565b6001600160a01b0383166100b85760405162461bcd60e51b815260206004820152603760248201527f4661756365743a2063616e2774207365742074686520746f6b656e206164647260448201527f65737320746f20746865207a65726f2061646472657373000000000000000000606482015260840160405180910390fd5b600180546001600160a01b0319166001600160a01b039490941693909317909255600255600355610175565b600080546001600160a01b038381166001600160a01b0319831681178455604051919092169283917f8be0079c531659141344cd1fd0a4f28419497f9722a3daafe3b4186f6b6457e09190a35050565b600080600060608486031215610148578283fd5b83516001600160a01b038116811461015e578384fd5b602085015160409095015190969495509392505050565b610649806101846000396000f3fe608060405234801561001057600080fd5b506004361061009e5760003560e01c8063b69ef8a811610066578063b69ef8a814610114578063ead50da31461011c578063f2fde38b14610125578063f426f03a14610138578063fc0c546a1461014b57600080fd5b806323024408146100a3578063271f88b4146100b8578063715018a6146100cb5780638da5cb5b146100d3578063aa8c217c146100fd575b600080fd5b6100b66100b136600461053d565b61015e565b005b6100b66100c636600461058b565b61033d565b6100b661036c565b6000546001600160a01b03165b6040516001600160a01b0390911681526020015b60405180910390f35b61010660025481565b6040519081526020016100f4565b6101066103a2565b61010660035481565b6100b661013336600461053d565b610423565b6100b661014636600461058b565b6104be565b6001546100e0906001600160a01b031681565b6001600160a01b038116600090815260046020526040902054439015806101a957506003546001600160a01b0383166000908152600460205260409020546101a690836105f0565b10155b6101fa5760405162461bcd60e51b815260206004820181905260248201527f4164647265737320686173206265656e2066756e64656420726563656e746c7960448201526064015b60405180910390fd5b6002546102056103a2565b1161025e5760405162461bcd60e51b8152602060048201526024808201527f4e6f7420656e6f75676820746f6b656e2066756e647320696e207468652066616044820152631d58d95d60e21b60648201526084016101f1565b6001600160a01b03828116600081815260046020819052604091829020859055600154600254925163a9059cbb60e01b815291820193909352602481019190915291169063a9059cbb90604401602060405180830381600087803b1580156102c557600080fd5b505af11580156102d9573d6000803e3d6000fd5b505050506040513d601f19601f820116820180604052508101906102fd919061056b565b507f936f47201eb468366c62d02d7434bd35dc11ca20a76a628ce9909f62838cafca60025460405161033191815260200190565b60405180910390a15050565b6000546001600160a01b031633146103675760405162461bcd60e51b81526004016101f1906105bb565b600255565b6000546001600160a01b031633146103965760405162461bcd60e51b81526004016101f1906105bb565b6103a060006104ed565b565b6001546040516370a0823160e01b81523060048201526000916001600160a01b0316906370a082319060240160206040518083038186803b1580156103e657600080fd5b505afa1580156103fa573d6000803e3d6000fd5b505050506040513d601f19601f8201168201806040525081019061041e91906105a3565b905090565b6000546001600160a01b0316331461044d5760405162461bcd60e51b81526004016101f1906105bb565b6001600160a01b0381166104b25760405162461bcd60e51b815260206004820152602660248201527f4f776e61626c653a206e6577206f776e657220697320746865207a65726f206160448201526564647265737360d01b60648201526084016101f1565b6104bb816104ed565b50565b6000546001600160a01b031633146104e85760405162461bcd60e51b81526004016101f1906105bb565b600355565b600080546001600160a01b038381166001600160a01b0319831681178455604051919092169283917f8be0079c531659141344cd1fd0a4f28419497f9722a3daafe3b4186f6b6457e09190a35050565b60006020828403121561054e578081fd5b81356001600160a01b0381168114610564578182fd5b9392505050565b60006020828403121561057c578081fd5b81518015158114610564578182fd5b60006020828403121561059c578081fd5b5035919050565b6000602082840312156105b4578081fd5b5051919050565b6020808252818101527f4f776e61626c653a2063616c6c6572206973206e6f7420746865206f776e6572604082015260600190565b60008282101561060e57634e487b7160e01b81526011600452602481fd5b50039056fea2646970667358221220c6a2d4ff2ad34995d713c695c6d2c6b16ff064fc286a6028407e40102abce52764736f6c63430008040033",
  "linkReferences": {},
  "deployedLinkReferences": {}
}