{
  "_format": "hh-sol-artifact-1",
  "contractName": "ReceiverPays",
  "sourceName": "contracts/ReceiverPays.sol",
  "abi": [
    {
      "inputs": [],
      "stateMutability": "payable",
      "type": "constructor"
    },
    {
      "inputs": [
        {
          "internalType": "uint256",
          "name": "amount",
          "type": "uint256"
        },
        {
          "internalType": "uint256",
          "name": "nonce",
          "type": "uint256"
        },
        {
          "internalType": "bytes",
          "name": "signature",
          "type": "bytes"
        }
      ],
      "name": "claimPayment",
      "outputs": [],
      "stateMutability": "nonpayable",
      "type": "function"
    },
    {
      "inputs": [],
      "name": "shutdonw",
      "outputs": [],
      "stateMutability": "nonpayable",
      "type": "function"
    }
  ],
  "bytecode": "0x6080604052600080546001600160a01b031916331790556105fc806100256000396000f3fe608060405234801561001057600080fd5b50600436106100365760003560e01c8063a90ae8871461003b578063ef875c7314610050575b600080fd5b61004e61004936600461049e565b610058565b005b61004e610211565b60008281526001602052604090205460ff16156100b15760405162461bcd60e51b8152602060048201526012602482015271139bdb98d948185b1c9958591e481d5cd95960721b60448201526064015b60405180910390fd5b6000828152600160208181526040808420805460ff191690931790925581516bffffffffffffffffffffffff1933606090811b821683850152603483018990526054830188905230901b166074820152825180820360680181526088820184528051908301207f19457468657265756d205369676e6564204d6573736167653a0a33320000000060a883015260c4808301919091528351808303909101815260e4909101909252815191012090506101688161026e565b610171826102b6565b600061017d82846102f9565b905061018881610378565b6000546001600160a01b038281169116146101dc5760405162461bcd60e51b815260206004820152601460248201527309acae6e6c2ceca40c8de40dcdee840dac2e8c6d60631b60448201526064016100a8565b604051339086156108fc029087906000818181858888f19350505050158015610209573d6000803e3d6000fd5b505050505050565b6000546001600160a01b0316331461026b5760405162461bcd60e51b815260206004820152601760248201527f4f6e6c79206f776e65722063616e2073687574646f776e00000000000000000060448201526064016100a8565b33ff5b6102b38160405160240161028491815260200190565b60408051601f198184030181529190526020810180516001600160e01b03166327b7cf8560e01b1790526103bc565b50565b6102b3816040516024016102ca919061055d565b60408051601f198184030181529190526020810180516001600160e01b03166305f3bfab60e11b1790526103bc565b600080600080610308856103dd565b6040805160008152602081018083528b905260ff8516918101919091526060810183905260808101829052929550909350915060019060a0016020604051602081039080840390855afa158015610363573d6000803e3d6000fd5b5050604051601f190151979650505050505050565b6040516001600160a01b03821660248201526102b39060440160408051601f198184030181529190526020810180516001600160e01b031663161765e160e11b1790525b80516a636f6e736f6c652e6c6f67602083016000808483855afa5050505050565b60008060006103ec8451610459565b835160411461043d5760405162461bcd60e51b815260206004820152601f60248201527f5369676e6174757265206d757374206265203635206279746573206c6f6e670060448201526064016100a8565b5050506020810151604082015160609092015160001a92909190565b6102b38160405160240161046f91815260200190565b60408051601f198184030181529190526020810180516001600160e01b031663f5b1bba960e01b1790526103bc565b6000806000606084860312156104b2578283fd5b8335925060208401359150604084013567ffffffffffffffff808211156104d7578283fd5b818601915086601f8301126104ea578283fd5b8135818111156104fc576104fc6105b0565b604051601f8201601f19908116603f01168101908382118183101715610524576105246105b0565b8160405282815289602084870101111561053c578586fd5b82602086016020830137856020848301015280955050505050509250925092565b6000602080835283518082850152825b818110156105895785810183015185820160400152820161056d565b8181111561059a5783604083870101525b50601f01601f1916929092016040019392505050565b634e487b7160e01b600052604160045260246000fdfea26469706673582212201bc99b511d5df322a4e24e552dbdadf9664bed73fe513d80831be38a80d2d42f64736f6c63430008040033",
  "linkReferences": {},
  "deployedLinkReferences": {}
}